:020000040800F2
:1000000000500020A54400082544000827440008AB
:1000100000000000000000000000000000000000E0
:10002000000000000000000000000000294400085B
:1000300000000000000000002B4400082D440008D0
:10004000F5440008F5440008F5440008F5440008AC
:10005000F5440008F5440008F5440008F54400089C
:10006000F544000839440008F5440008F544000848
:10007000F5440008F5440008F5440008F54400087C
:10008000F5440008F5440008F544000800000000AD
:10009000F5440008F5440008F5440008F54400085C
:1000A000F5440008F5440008F5440008F54400084C
:1000B000F5440008F5440008F5440008F54400083C
:1000C00010B5064C2378002B07D1054B002B02D02E
:1000D000044800E000BF0123237010BD4000002051
:1000E0000000000040450008044B10B5002B03D071
:1000F0000349044800E000BF10BDC04600000000F6
:100100004400002040450008002243088B4274D37D
:1001100003098B425FD3030A8B4244D3030B8B4208
:1001200028D3030C8B420DD3FF22090212BA030C11
:100130008B4202D31212090265D0030B8B4219D3F2
:1001400000E0090AC30B8B4201D3CB03C01A524112
:10015000830B8B4201D38B03C01A5241430B8B425A
:1001600001D34B03C01A5241030B8B4201D30B0343
:10017000C01A5241C30A8B4201D3CB02C01A52416A
:10018000830A8B4201D38B02C01A5241430A8B422D
:1001900001D34B02C01A5241030A8B4201D30B0216
:1001A000C01A5241CDD2C3098B4201D3CB01C01A30
:1001B000524183098B4201D38B01C01A524143093A
:1001C0008B4201D34B01C01A524103098B4201D328
:1001D0000B01C01A5241C3088B4201D3CB00C01A95
:1001E000524183088B4201D38B00C01A524143080D
:1001F0008B4201D34B00C01A5241411A00D2014632
:10020000524110467047FFE701B5002000F006F8A4
:1002100002BDC0460029F7D076E770477047C04658
:100220008446101C62468C46191C634600E0C0469A
:100230001FB500F0E3FD002801D40021C8421FBD16
:1002400010B500F03BFD4042013010BD10B500F08C
:10025000D5FD002801DB002010BD012010BDC046E7
:1002600010B500F0CBFD002801DD002010BD0120FD
:1002700010BDC04610B500F05DFD002801DC002077
:1002800010BD012010BDC04610B500F053FD002880
:1002900001DA002010BD012010BDC0468446081CB4
:1002A0006146FFE71FB500F0A3F9002801D4002143
:1002B000C8421FBD10B500F025F94042013010BD05
:1002C00010B500F095F9002801DB002010BD0120D9
:1002D00010BDC04610B500F08BF9002801DD0020EC
:1002E00010BD012010BDC04610B500F033F9002844
:1002F00001DC002010BD012010BDC04610B500F08B
:1003000029F9002801DA002010BD012010BDC046E7
:10031000002B11D1002A0FD1002900D1002802D0D2
:100320000021C943081C07B4024802A140180290EA
:1003300003BDC046E9FEFFFF03B4684601B502985D
:1003400000F01EF8019B9E4602B00CBC7047C046F0
:100350009E2110B5C905041CFFF7D0FF002803D16A
:10036000201C00F08BFC10BD9E21201CC90500F054
:10037000C1FA00F083FC80231B069C466044F2E730
:10038000F0B54F464646D646C0B5040082B00D00D3
:10039000914698468B422FD82CD04146484601F0D2
:1003A000AFFC29000600200001F0AAFC331A9C468D
:1003B000203B9A4600D576E04B46524693401F00BC
:1003C0004B46624693401E00AF4228D825D0534684
:1003D000A41BBD41002B00DA7BE000220023009229
:1003E00001930123524693400193012362469340B7
:1003F000009318E08242D0D900220023009201939A
:100400000A9B002B01D01C605D600098019902B02E
:100410001CBC90469946A246F0BDA342D7D9002203
:100420000023009201936346002BE9D0FB07984616
:10043000414672080A437B0866460EE0AB4201D192
:10044000A2420CD8A41A9D41012024196D4100211B
:10045000013E24184D41002E06D0AB42EED9013E9C
:1004600024196D41002EF8D10098019953460019C6
:100470006941002B23DB2B005246D3402A006446FF
:10048000E2401C0053461500002B2DDB260057468A
:10049000BE40330026006746BE403200801A9941B4
:1004A00000900191ACE7624620239B1A4A46DA404D
:1004B0006146130042468A4017001F4380E76246A8
:1004C00020239B1A2A0066469A402300F3401343D8
:1004D000D4E76246202300219B1A0022009101925A
:1004E0000122DA40019280E72023624626009B1A0F
:1004F000DE402F00B0466646B74046463B003343D9
:10050000C8E7C04670B542004E024C0045026D0A75
:10051000120EC30F760A240EC90FFF2A0FD0FF2C2C
:1005200011D00120A24200D070BDB542FCD18B4257
:100530000DD0002AF8D12800451EA841F4E701207B
:10054000002DF1D1EBE70120002EEDD1E9E70020ED
:10055000EAE7C04670B54A004E02450244006D0A03
:10056000240EC30F760A120EC90FFF2C15D0FF2AD6
:100570000ED0002C15D1002A01D1002E1CD0002D48
:1005800014D08B4227D00220013B1840013870BDA7
:10059000002EEED002204042F9E7002DFAD1FF2ACA
:1005A0000ED0002A0ED1002EEDD00BE00123013930
:1005B000994308000130EAE70020002DE7D0E2E788
:1005C000002EE7D18B42DED1944205DD0221581E78
:1005D00008400138DBE70024A24204DCB542D2D84F
:1005E0000020B542D3D2581E012398430130CEE7F4
:1005F00030B5420044024D02C30F4800640A120E97
:100600006D0A000EC90FFF2A12D0FF280CD0002A55
:1006100012D1002819D1002D17D1002C2BD0022087
:10062000013B1840013826E0002DF0D0022022E0E6
:10063000002CFBD1FF281FD000281FD1002D1DD179
:100640000220013B1840013815E0002C0ED08B42EF
:10065000E5D10022904204DCAC42E0D80020AC425C
:1006600009D2581E01239843013004E001230139C7
:1006700099430800013030BD002DD7D18B42CED137
:100680008242E7DD0221581E08400138F3E7C046E8
:10069000F0B54E4657464546DE46E0B543025B0A96
:1006A000450083B00F1C99462D0EC60F002D57D064
:1006B000FF2D24D08020DB00C00418430023814696
:1006C0009A469B467F3D7C027A00FB0F640A120E1D
:1006D000984623D0FF2A4BD0E30080240020E40476
:1006E0007F3A1C43AD186B1C474601935346774035
:1006F0003A000F2B48D87D499B00CB589F46002BD2
:1007000000D085E008339A46063B9B467C027A007F
:10071000FB0FFF25640A120E9846DBD1002C00D097
:1007200090E0524601231A4392460120DBE74C46F3
:1007300058461700022824D0032800D1CFE0002219
:10074000002301284DD15802D205400AFF0710436B
:10075000384303B03CBC90469946A246AB46F0BD38
:10076000002B5BD104239A46033B00259B46AAE756
:10077000FF35002C60D1524602231A4392460220D4
:10078000B1E7FF220023DEE74B461B0C9C464B469D
:100790002604360C180461463300220C6446000C13
:1007A00043434E435043544380191A0C1218964247
:1007B00003D9802149028C4664441B041B0C10049D
:1007C000C01883015E1EB341800E1843130C1B1921
:1007D0009B0103431C00230179D5012362081C40BF
:1007E0001443019A7F32002A4DDD630704D00F23A2
:1007F0002340042B00D00434230103D53C4B019A41
:100800001C408032FE2ABCDCA3015B0AD2B29AE70C
:100810000C239A46093BFF259B4654E7180001F03C
:1008200051FA4A46431F76259A4000236D4291466D
:100830002D1A9A469B4646E7524603231A43924690
:10084000032050E7200001F03DFA431F2D1A9C4081
:10085000763D002047E780230027DB03FF2272E775
:10086000424666E74C463200584662E780234A46D5
:10087000DB031A4222D01C4220D123435B025B0AD5
:100880004746FF225FE701239A1A1B2A21DC230037
:100890000199D3409E318C401A0023005C1EA34175
:1008A00013435A0704D00F221A40042A00D00433FD
:1008B0005A0111D49B015B0A002244E780234A4677
:1008C000DB0313435B025B0A3700FF223BE7019522
:1008D00087E70022002336E70122002333E7802345
:1008E000DB0323435B025B0AFF222CE7C4450008BD
:1008F000FFFFFFF7F8B54746CE464400C20F80B56C
:1009000047024802400A8446664648007F0A240E91
:10091000F60025009046FB00000EC90FB146FF28E7
:1009200000D185E001267140261A914257D0002E51
:1009300043DD002800D07FE04946002900D1AAE02D
:10094000013E002E00D0F7E05B1A5A0100D48BE084
:100950009B019C09200001F0B5F9053884408542CF
:1009600000DDD3E0451B230020200135EB40451B73
:10097000AC40621E94412343072400251C40012201
:1009800041460A40002C04D00F211940042900D010
:100990000433590100D480E00135ECB2FF2D00D0C2
:1009A000A3E0FF2400235B02E405580AD20720439A
:1009B00010430CBC90469946F8BD002E74D1601CC3
:1009C000C0B2012800DCA7E04A469C1A620100D5AB
:1009D000B6E0002CBED1002200240023E3E7002E65
:1009E00000DC85E0002846D0FF2C49D08022484614
:1009F000D2041043814601221B2E09DC20204C46E4
:100A0000801B84404A462000F240441EA04102431D
:100A10009B185A0128D50135FF2D00D1A8E00122ED
:100A2000072494491A405B080B4013431C40A6E777
:100A3000002E00D078E775E7FF2C54D0802249467D
:100A4000D2041143894601221B2E09DC202148468D
:100A5000891B88404A460100F240481E81410A43F2
:100A60009B1A5A0100D573E7012241460A405907F3
:100A700000D089E711E04846002858D1FF2C0CD15E
:100A8000DB08002B00D18CE78020C00303435B020E
:100A90005B0AFF2487E7FF2C25D0DB08FF2DF0D071
:100AA0005B025B0AECB27EE7002C4DD0FF2818D029
:100AB0008024E404724223431B2A00DDC4E01C00AE
:100AC0002025D440AA1A93405A1E934123434A46F4
:100AD0000500D31A884638E7721CF8D0F243FF2885
:100AE000EAD10A004B46FF25D7E79B015B0A5AE78C
:100AF000002E41D1651CE9B2012945DDFF2D00D151
:100B00004FE707244B445B081C4038E707225A4B49
:100B10002D1A2340144032E7002C1DD1002B7AD12E
:100B20004B46002B00D191E00A000025B5E7013EBD
:100B3000002E19D14B446CE7FF2C84D1FF25ACE784
:100B40004A468846D41A05E7002BC5D10A00FF287B
:100B5000C8D005004B46A0E7002B49D14B46002BDF
:100B600077D00A00FF2598E7FF2C00D043E787E7FE
:100B70000A00FF24002316E7002C15D1002B57D1C3
:100B8000FF28E6D14B467BE7002C20D1002B57D025
:100B90004946002953D04B445A0168D50724364AA8
:100BA0001C4001251340EAE6FF28EBD08022D20446
:100BB000764213431B2E53DC2025AD1B1A00AB409D
:100BC000F2405C1EA34113434B44050021E7002B78
:100BD000D8D04946002900D152E78021C9030F42ED
:100BE00000D14DE76046084200D049E74B4647E751
:100BF0004846FF25002800D14FE78022D203174244
:100C000004D06046104201D14B468846012241463D
:100C1000FF250A4041E7484600281FD01A1A500114
:100C200020D54A460724D31A1C4088460025A6E64C
:100C3000741CC9D0F643FF28BCD14B4620E7994627
:100C40004B460025DB082BE7012340E70022002369
:100C5000A9E680230022DB03FF24A4E600251CE78D
:100C60000123B1E7002AF1D013000025FCE600259E
:100C7000FAE6C046FFFFFF7DFFFFFFFB4102420097
:100C8000C30F490A120E00207E2A0DD99D2A0CD8C6
:100C9000802000040143952A0ADC9620821AD14064
:100CA0004842002B00D108007047034A9818FBE720
:100CB000963A9140F4E7C046FFFFFF7FF0B54F46FC
:100CC0004646D6468446C0B58046194E18030F03E3
:100CD0004D00000B5C0082463F0B6D0DC90F914625
:100CE000640DDB0F0120B5420AD0B44203D0A54207
:100CF00001D157450CD01CBC90469946A246F0BD88
:100D000066463E43F7D1AC42F5D154461443F2D186
:100D10000120C845EFD1994207D0002DEBD16346A1
:100D20001F433800471EB841E5E70020E3E7C0460F
:100D3000FF070000F0B54F464646D6464D00C0B509
:100D40000E03C90F8A462C491F035C008046360BF0
:100D50006D0D91463F0B640DDB0F8D421ED08C4212
:100D600016D0002D1ED130438446002C01D13A43C9
:100D700023D06246002A1AD09A4529D05146022033
:100D80000139084001381CBC90469946A246F0BD86
:100D900039001143E5D002204042F4E73043FAD154
:100DA000AC420FD0002C0FD13A43E7D00CE0012227
:100DB000013B934318000130E5E763460020002B18
:100DC000E1D0DBE73A43E6D19A45D7D1A542D5DC5D
:100DD000A54205DBBE42D1D808D00020BE42D2D207
:100DE00050460123013898430130CCE7C845C5D8A7
:100DF0000020C845F4D3C6E7FF070000F0B54F4612
:100E00004646D6464D00C0B50E03C90F8A462E4948
:100E10001F035C008046360B6D0D91463F0B640D41
:100E2000DB0F8D4218D08C4211D0002D18D13043E9
:100E30008446002C1ED13A431CD163460020002B6F
:100E400030D0514602200139084001382AE03900EB
:100E50001143EAD0022025E03043FBD1AC4226D03A
:100E6000002C26D13A4324D15146022001390840B2
:100E7000013817E06246002A0FD09A45E1D1A54219
:100E800005DBBE42DDD819D00020BE420AD2504652
:100E9000012301389843013004E00122013B9343D0
:100EA000180001301CBC90469946A246F0BD3A435A
:100EB000D0D19A45C5D1A542C3DCE0E7C845C0D82A
:100EC0000020C845E3D3EDE7FF070000F0B5574623
:100ED000DE464E464546E0B5834606000F03480011
:100EE00087B092461D003F0B400DCC0F002800D16B
:100EF0006FE0DE4B984238D08023FF001B041F4375
:100F0000730F3B430193DA4B0027994600239B461E
:100F1000F60081442B0369001B0B52469846490D8D
:100F2000ED0F002900D185E0D04B994200D173E04C
:100F30004346DA0080231B0413435246CC48520F29
:100F400084461343524600206144D2008944210064
:100F5000694000918C46012149448A460F2F00D9EF
:100F600090E0C449BF00CF59BF465B463B43019365
:100F700000D06AE102230827002681469B46C9E784
:100F800032005846019B61460091022800D175E06D
:100F9000032800D1FEE1012800D02CE10023002726
:100FA000002600253F032A0D3F0BB34812053A43A4
:100FB00002401B051343009A5B00D1075B080B43FB
:100FC0003000190007B03CBC90469946A246AB469B
:100FD000F0BD5B463B43019300D12FE1002F00D1D0
:100FE000A5E1380000F06EFE03000B3B1C2B00DD7A
:100FF00096E11D22D31A5A460100DA405E460839AE
:101000008F4013008E403B4301939C4B00271B1ADB
:10101000994600239B467DE7414653460B4393493F
:101020008C46E144002B00D01AE102220220174333
:1010300000228CE7134300D10DE14346002B00D181
:1010400081E1404600F03EFE02000B3A1C2A00DD22
:1010500072E10100434608398B4098461D239A1AD5
:101060005346D3401A004346134352468A404946EA
:10107000081A824989468144002068E77B4B002793
:1010800000268EE7140C1204120C1100370C3604E3
:10109000350C794328008C462E006043604483461B
:1010A00056432100300C8046584679434044029113
:1010B000844506D98846802149028C46E044414651
:1010C00002913604010C360C00048B4681191E0C6B
:1010D0001B041B0C0391190079438C4628007543AF
:1010E0006544A8465843050C45447743A94203D9B3
:1010F000802149028C466744290C8C463900000443
:10110000000C2D042D186144AB44059159460491FF
:1011100001990F043F0C080C39005143424390469B
:1011200002008C46090C8B4662437C4344445C4479
:10113000A04503D98021490288464244210C8846B3
:1011400061460904090C8C463900594343437043F6
:101150007E430F0CF6182404BE19644442448C46A6
:10116000B34203D980235B0298464044029B614608
:101170009846049B370443449B46AB45AD416B42C4
:101180000D0405992D0C8C467F196744FD18A8465F
:101190005D462D19A542A44193466442A446C3442A
:1011A000DC448F42BF4198459B4193459241A44501
:1011B000A4415B427F421F43360C52426442BF1936
:1011C0002243BF18624638184302D20D03991343D5
:1011D0006A020A43501E82416146ED0D2A434E02C7
:1011E0003243D90100D4B3E0012650083240024313
:1011F000DE0732435B08224C5444002C62DD510769
:1012000009D00F201040042805D0101D90429241B3
:1012100052429B180200D90104D580241948E400E9
:10122000034054441848844200DD27E75E075B0210
:10123000D2081F0B630516435B0DB2E600239946E7
:101240000133042700269B4664E603230197814669
:101250000C279B465EE6012201201743002276E61A
:10126000032303201F43434671E6C046FF070000E7
:1012700001FCFFFF04460008FFFF0F800DFCFFFF8D
:10128000FF030000FFFFFFFEFE0700000023802792
:1012900000933F030026434B83E6019B3200A446A4
:1012A000584670E6AC466EE6802701993F03394206
:1012B0002DD03B422BD11F433F033F0B009516001F
:1012C000384B6EE601252D1B382D00DD66E61F2DFF
:1012D00040DC35481C005044160082408440EE40FB
:1012E000501E824134431443EB40620709D00F2261
:1012F0002240042A05D02200141D9442804140421D
:101300001B181A023ED501230027002649E6802734
:10131000019B3F031F433F033F0B0094214B40E6DB
:1013200003005A46283B9A40002601926DE6584633
:1013300000F0C8FC203057E603005246283B9A4094
:101340001300002293E6504600F0BCFC20307BE600
:10135000CA4650E71F201E004042041BE640202DD5
:1013600003D0124C5444A3401A43501E82413243CE
:1013700007260027164009D00F2000231040140034
:101380000428B9D122005E075B021F0BD208164366
:10139000002306E680273F031F433F033F0B160051
:1013A000004BFEE5FF0700001E0400003E040000A5
:1013B000F8B557464E464546DE460C000903E0B5F3
:1013C000490A460F5F0031431E03DB0F760A9B4636
:1013D000530F3343C84E6500C000E40FD2006D0DBB
:1013E000A24681467F0D9C469046B74200D1B9E0A7
:1013F0005B46012673409B46EE1BA34500D183E06C
:10140000002E63DD002F00D0B1E06346134300D10E
:1014100023E1731E002B00D0BAE1861A6346B04266
:1014200080410125C91A4042091A0B0200D447E144
:1014300049024B0A98464346002B00D189E14046B9
:1014400000F040FC0300083B1F2B00DD7CE1202264
:101450003000D21A4146D040994002009E400A43D3
:101460009D4200DD6AE15D1B6B1C1F2B00DD94E1DA
:10147000202110003500C91A8E40DA408840DD4036
:10148000711E8E4111000722284300250643324079
:10149000002A09D00F233340042B05D0331DB3425B
:1014A000B641764289191E000B0200D43DE26A1C47
:1014B000914B55056D0D9A4200D119E18F4AF608FE
:1014C0000A40570752023743120B9BE0002E00D010
:1014D000C5E06E1C7605760D012E00DC48E16746FE
:1014E000861ACB1BB042BF417F42B8461F0043461D
:1014F000FF1A3B00B8461B0200D55FE137439AD183
:1015000000220024002579E0002E00DCFAE0002F04
:1015100000D18DE0784B9D4267D0802367461B0445
:101520001F43BC46382E00DC52E1634613435A1E6B
:1015300093411E1886428041404209180B0200D494
:10154000BEE06D4B01359D4200D1D2E06B4A73087D
:101550000A4001210E401E435108D30707221E43B3
:10156000324095E71E00164300D045E740E7624B46
:101570009D423AD0802367461B041F43BC46382E49
:1015800000DDEBE01F2E00DC3AE133006746203B34
:10159000DF403B00202E05D04027BF1B6646BE40E3
:1015A000324390464646721E96413343DAE0002BA2
:1015B00000D114E26346134300D168E180234E0753
:1015C000C008C9081B030643194208D06046C0087A
:1015D000184204D163460100D2085E071643F300A7
:1015E0009946C900720F444D11434B46DE08424BE9
:1015F0004F073743CA089D4200D16EE012036D05C4
:10160000120B6D0D00211203130B0A0D12051A4364
:101610003B4B2D0513402B435B00E4075B08234342
:10162000380019003CBC90469946A246AB46F8BD2E
:101630006346134311D0731E002B00D007E18618B8
:101640008642804161444042091801250B0237D58A
:1016500002257BE73E00614691463500C5E75C46C2
:10166000002D00D0E1E00B000343F3D0731C00D148
:10167000ACE1214B9F4200D13AE1F343382B00DD2E
:101680006FE11F2B00DD8CE120250E00ED1AAE402E
:10169000B0460600AA46DE40454635432E00554674
:1016A000D940A8406346451EA8415B1A9C4630437A
:1016B000161AB242924163465242991A3D00B4E66C
:1016C00007223240002A00D0E4E60B4BF6084F0711
:1016D0003743CA089D4200D090E73B00134300D136
:1016E000A6E180231B031A431203120B024D89E764
:1016F00015000022002785E7FF070000FFFF7FFF9E
:10170000FFFF0F80002E00D0C7E06B1C5E05760D3A
:10171000012E00DCF0E0C84DAB4200D1B9E08518E5
:101720000A00854289416244494251180722CE0786
:101730006D082E43490832401D00A9E6BF49ED1A45
:10174000114007223240A3E63200283882400026AA
:1017500086E6300000F0B6FA203073E663461343A5
:101760005A1E9341C61AB04280414042091A5CE6B3
:101770000E00674606431743002D5ED1002E00D0B1
:10178000F3E0002F00D11EE15C46614691462CE754
:10179000A94FBE427BD01E00F1E610001F3DE8407D
:1017A000202B03D04021CB1A9A401643731E9E4132
:1017B0000722064332400021002583E7161A6346BC
:1017C000B2428041591A40420B1A98465C4632E6B2
:1017D0001F2E00DDABE02027BB1B9A466346574611
:1017E000BB40994613004F46F3401F433B0057460A
:1017F000BA40571EBA4113436246F240891898E630
:101800002027BB1B9A4663465746BB4099461300A8
:101810004F46F3401F433B005746BA40571EBA415C
:1018200013436246F240891A9CE7834B9F425FD084
:1018300080252D047342294320E7002E0CD1002F70
:1018400000D1D0E05C46614691467B4DCDE67A4FB3
:10185000BE421CD01E0065E6002F18D0C0084E07FF
:1018600006438020C9080003014208D06346DC0813
:10187000044204D12100DA46D2085E071643F30081
:10188000994601245346C900720F11431C406A4D0A
:10189000ABE61D0000220027B4E6002D59D10B0055
:1018A000034300D1D6E6731C00D1B2E0624B9F42E5
:1018B0001ED0F343382B6FDC1F2B00DD97E0202573
:1018C0000E00ED1AAE40B0460600AA46DE40454680
:1018D00035432E005546A840D940451EA8418C44AA
:1018E0000643B61896429241514261443D0025E6B6
:1018F0003D006146914678E60B000343002D00D081
:1019000055E6002BF5D06346134300D16DE68618EB
:101910008642804161444042091800220B0200D4F3
:10192000D0E6464B01351940B2E5B1465DE63300DD
:101930006746203BDF403B00202E05D04027BF1BE1
:101940006646BE40324390464646721E9641334339
:10195000EFE5394B9F42CBD080252D0473422943BC
:10196000A8E70843411E8841A2E6002F00D13CE6CB
:101970006346861ACF1AB0429B415B42FB1A9846D7
:101980001B024ED5161A6346B2429241591A524270
:10199000891A5C4600227BE501430E00711E8E41D0
:1019A0009FE71D000E00203DEE40B046202B04D0E6
:1019B0004025EB1A99400843814648464346411E5C
:1019C0008841184374E60022002417E6161A63467D
:1019D000B2429241591A5242891A3D0025E56146A8
:1019E0009146154D01E680220024120379E61D0080
:1019F0000E00203DEE40B046202B04D04025EB1ACF
:101A00009940084381464E464346711E8E411E430F
:101A100067E7861896429B4161445B42C9183D00C6
:101A20008CE547463743CED007224146324049E64F
:101A300000273A00E6E5C046FF070000FFFF7FFFF2
:101A400070B500282DD0C317C5185D40C40F2800FD
:101A500000F038F9154B1B1A5B055B0D0A2815DDE4
:101A60000B38854000222D032D0B002110002D0383
:101A70000A0D2D0B12052A430D4D1B052A40134359
:101A80005B00E4075B082343190070BD02002900D6
:101A9000153291400A000B21081AC5402D032D0B69
:101AA000E3E70024002300250022DEE71E040000F7
:101AB000FFFF0F8010B5041E25D000F003F9144B72
:101AC0001B1A5B055B0D0A2812DD0B3884400022CF
:101AD0002403240B0021100024030A0D240B1205FB
:101AE00022430C4C1B05224013435B00590810BDD8
:101AF00002002100153291400A000B21081AC4404F
:101B00002403240BE6E7002300240022E2E7C0467A
:101B10001E040000FFFF0F804100090E4B1C70B532
:101B2000DBB24602750AC40F012B14DDE0239B00D3
:101B30006D07360BCB1800210A0D280012051C4D2D
:101B400032435B052A405B0813435B00E4075B08F4
:101B50002343190070BD002914D1002D1ED0280088
:101B600000F0B0F80A281CDC0B232A001B1ADA400C
:101B7000030015339D400F4B12031B1A5B05160B18
:101B80005B0DD8E7002D06D0320B802636036D079B
:101B90001643094BCFE7084B0026CCE7002300266D
:101BA000C9E703002A000B3B9A400025E3E7C04643
:101BB000FFFF0F8089030000FF070000F0B54C0015
:101BC000640D0B03621C5B0A460F5205C90F1E43CE
:101BD000C500520D012A29DD374BE718FE2F1CDC0A
:101BE000002F3BDD8001431E98410722F3006D0F5B
:101BF00003432B431A40002A04D00F221A40042A20
:101C000000D004338022D2041A4024D00137FAB223
:101C1000FF2F02D09B01580A01E0FF220020400262
:101C2000D205400AC90710430843F0BD3543002CD4
:101C300004D1002D0AD100220020F0E7002DECD0C5
:101C40008020C0033043FF22E9E7002400235B0229
:101C5000580AE2B2E3E7DB083C00F8E73B00173341
:101C6000F3DB80231B0433431E26F61B1F2E14DDDB
:101C700002225242D71B1A00FA401700202E04D02D
:101C80000E4A94466444A3401D432B005D1EAB41A5
:101C900007223B431A400027ADE7094A2800A21853
:101CA000954093406C1EA541F04007222B4303430F
:101CB0001A4000279FE7C04680FCFFFFA2FCFFFF01
:101CC00082FCFFFF1C2101231B04984201D3000C5E
:101CD00010391B0A984201D3000A08391B0998429F
:101CE00001D30009043902A2105C40187047C046B5
:101CF00004030202010101010000000000000000D5
:101D000010B5002903D1FFF7DDFF203002E0081CE9
:101D1000FFF7D8FF10BDC04610B50400074B186888
:101D2000FA218900FEF7F0F900F0C4FA0120002240
:101D30002100404200F084FA002010BD3C00002049
:101D400010B5064A136840210B4313600020FFF7CB
:101D5000E3FF02F0C9FA002010BDC0460020024097
:101D6000024A1368013313607047C0467C000020AC
:101D7000014B18687047C0467C00002010B582B047
:101D80000190FFF7F5FF0400FFF7F2FF001B019B36
:101D90009842F9D302B010BD10B582B00400084BD0
:101DA00018680849FEF7B0F94443019402E0019B2A
:101DB000013B0193019B002BF9D102B010BDC0463D
:101DC0003C00002040420F0070B50400026891689A
:101DD00003230B40012B0DD09168184B19420ED0F4
:101DE000A36D10221343A365E36D0F3A1343E3651C
:101DF000012070BD1368DB07EED50020F9E793687A
:101E000001210B4393600120FFF7C6FFFFF7B0FFEE
:101E1000050023681B68DB070ED4FFF7A9FF401BF2
:101E20000A28F6D9A36D10221343A365E36D0F3A78
:101E30001343E3650120DCE70020DAE717000080A8
:101E400070B5041E00D1DCE0836D002B2ED0A36D95
:101E5000DB0631D421688B6804221A402CD1A36D93
:101E6000694803400630FF300343A36588680323B5
:101E70000340012B29D06368C0200006834228D08C
:101E80008020C005834224D080200006834220D0D9
:101E90000B699B009B080B615C4B19685C48014017
:101EA000196019686068014319601BE0C36554221A
:101EB000835402F039FACAE7A36D10221343A365D5
:101EC00054230022E254012070BD0B68DB0713D4B9
:101ED000D1E70B699B009B080B6121680B69606867
:101EE00003430B612168CB6818208343CB602168D2
:101EF000CB68A0680343CB60444B19684548014058
:101F000019601968A06B400601431960236899683D
:101F1000C90004D49868802149050143996021686B
:101F2000CB683D480340CB602068C168E368256901
:101F3000022D2AD01343226A52031343226B52000C
:101F40001343626B1343A26992031343E269D20302
:101F500013430B43C360A36AC222FF32934205D0EE
:101F60002168CA68E06A03431343CB60636A012BAC
:101F70000DD0236C012B1DD023681A69D2072CD5F4
:101F80001A6901218A431A6127E00422D2E7236AF1
:101F9000002B06D12268D16880235B020B43D360FB
:101FA000E7E7A36D20221343A365E36D1F3A1343B4
:101FB000E365DEE72268136918490B401361216865
:101FC0000A69636CA06C0343E06C034313430B6129
:101FD0002268136901210B431361226853690721A9
:101FE0008B43536122685369E16B0B4353610023B8
:101FF000E365A36D03229343023A1343A3650020D4
:1020000062E7012060E7C046FDFEFFFF08270140B0
:10201000FFFFC3FFFFFFFFFD1902FEFF03FCFFFFF1
:10202000F8B504000E00170003689B685B073ED4F8
:102030005423C35C012B3CD054230122C254C369F6
:10204000012B32D0FFF7C0FE051E2CD1A36D1A4A1A
:102050001A4080235B001343A3650023E3655422E9
:10206000A354236D154ADA62236D154A1A63236D52
:10207000144A5A6323681C221A602268536810218C
:102080000B4353602268D3680F390B43D360216838
:1020900040313B003200206D00F0F4F92268936873
:1020A00004210B4393602800F8BD0025CEE70225EC
:1020B000F9E70225F7E7C046FEF0FFFFC920000858
:1020C0003B2100084721000810B5836A9A6D502112
:1020D000114203D01B6D5B6B984710BD996D802238
:1020E00092000A439A651A68D068C0210901084223
:1020F00013D1196A002910D1116809070DD591680B
:1021000049070ED451680C20814351609A6D0949EA
:102110000A400431FF310A439A65180001F030FE8D
:10212000DBE79A6D20210A439A65DA6D1F390A436D
:10213000DA65F2E7FEFEFFFF704710B5806AFFF731
:10214000FBFF10BD704710B5806A836D40221343BA
:102150008365C36D3C3A1343C365FFF7F3FF10BDBE
:1021600070B504000D005423C35C012B5CD05423D4
:102170000122C25403689A68520723D42B4A496843
:10218000914232D0996A2A685203520B0A439A62EA
:102190002B685B031FD42B689B0305D5244A116869
:1021A0008023DB030B4313602B68DB0305D5204A38
:1021B000116880235B040B43136054230022E25414
:1021C000002070BD836D20221343836554230022B9
:1021D000C2540120F5E7164A116880231B040B4303
:1021E00013600A20FFF7D8FDD5E7996A2A685203E1
:1021F000520B914399622B685B0304D50C4A136818
:102200000C490B4013602B689B0304D5084A1368E4
:1022100009490B4013602B68DB03CED5044A1368D1
:1022200006490B401360C8E70220CAE7011000000E
:1022300008270140FFFF7FFFFFFFBFFFFFFFFFFEFB
:1022400070B5002811DB8408134DC034A400625916
:1022500003231840C000FC331E008640B2438901AE
:102260000B4083401343635170BDC0B20F22024044
:10227000083A920806329200084BD3185D6803248E
:102280002040C000FF2214008440A54389010A4079
:1022900082402A435A60E7E700E100E000ED00E0F9
:1022A0001F2318401E3B8340014A13607047C046FD
:1022B00000E100E001380A4B98420FD8094A50600B
:1022C0000948036A1B021B0AC02109060B4303626B
:1022D0000023936007331360002070470120FCE760
:1022E000FFFFFF0010E000E000ED00E0042805D053
:1022F000054A136804218B4313607047024A136830
:1023000004210B431360F8E710E000E0704710B5BC
:10231000FFF7FCFF10BD10B5046863608368102BE5
:1023200004D0036899600368DA6010BD03689A609E
:102330000368D960F9E7000010B5002800D182E0F9
:102340002523C35C002B02D124330022C254252351
:102350000222C25401680B683C4A1A408368C46870
:102360002343046923434469234384692343C469A1
:102370002343046A234313430B600368344A9342A4
:102380001CD0344A934227D0334A93422FD0334A49
:10239000934237D0324A93423FD0324A934247D099
:1023A000314A934213D1314B1A6831490A401A60BD
:1023B0001A68416809060A431A6008E02B4B1A683C
:1023C0000F218A431A601A6841680A431A6025235C
:1023D0000122C254002010BD244B1A68F0218A4308
:1023E0001A601A68416809010A431A60EFE71F4B37
:1023F0001A6820490A401A601A68416809020A43AB
:102400001A60E4E7194B1A681B490A401A601A68F7
:10241000416809030A431A60D9E7144B1A6817493F
:102420000A401A601A68416809040A431A60CEE734
:102430000E4B1A6812490A401A601A684168090569
:102440000A431A60C3E70120C5E7C0460FC0FFFF7B
:10245000080002401C0002403000024044000240DC
:10246000580002406C00024080000240A800024078
:10247000FFFFFFF0FFF0FFFFFF0FFFFFFFFFF0FF89
:10248000FFFF0FFFF8B504002420205C012820D0B6
:102490000125242025540226013026542768386857
:1024A000A84338602000FFF736FF226813683343E3
:1024B00013602268136804210B43136022681368B9
:1024C00004310B431360226813682B431360002010
:1024D000F8BD0220FCE7000010B50400974B1A6815
:1024E000036897498B4214D096498B4231D0964964
:1024F0008B4230D095498B4230D095498B4230D0B9
:1025000094498B4202D08021090503E0802109040F
:1025100000E0082111423CD01A68120739D51A6828
:1025200008218A431A602368854A93421FD0854A4E
:10253000934246D0844A934245D0844A934245D040
:10254000834A934245D0834A93420DD0802212059C
:102550000EE08021DEE780210901DBE7802109020E
:10256000D8E780210903D5E78022120400E0082281
:10257000724B5A60E36B01221343E363252303325A
:10258000E254013B0022E254636B002B01D0200097
:1025900098476A4B1A68236869498B421FD069497A
:1025A0008B423FD068498B423ED068498B423ED037
:1025B00067498B423ED067498B420DD08021C904C8
:1025C0000EE08022D4E780221201D1E7802212029D
:1025D000CEE780221203CBE78021C90300E004216B
:1025E000114238D01A68520735D51A68920603D4BA
:1025F0001A6804218A431A602368514A93421FD003
:10260000504A93423FD0504A93423ED04F4A934261
:102610003ED04F4A93423ED04E4A93420DD0802244
:10262000D2040EE04021DBE78021C900D8E78021F9
:10263000C901D5E78021C902D2E78022D20300E098
:1026400004223E4B5A6025230522E254236B002BC3
:1026500001D020009847394B1A68236838498B42CB
:102660001FD038498B423FD037498B423ED0374943
:102670008B423ED036498B423ED036498B420DD0FC
:10268000802189040EE04022DBE78022D200D8E7D7
:102690008022D201D5E78022D202D2E780218903AD
:1026A00000E0022111423DD01A6892073AD51A681B
:1026B000920603D41A6802218A431A602368204ACA
:1026C00093421FD01F4A93422DD01F4A93422CD0D1
:1026D0001E4A93422CD01E4A93422CD01D4A93424C
:1026E0000DD0802292040EE02021DBE780218900BA
:1026F000D8E780218901D5E780218902D2E78022AD
:10270000920300E002220D4B5A60E36BE363252342
:102710000122E254013B0022E254E36A002B01D083
:102720002000984710BD2022EDE780229200EAE7C2
:1027300080229201E7E780229202E4E70000024053
:10274000080002401C0002403000024044000240E9
:10275000580002406C000240F0B5C64600B50023A8
:1027600038E0052600E00026AE4035003D43023447
:10277000A400584EA551584C25684246D4432E001B
:1027800026404A68D20302D5424615432E00524DD8
:102790002E606D682E0026404A68920302D542469C
:1027A00015432E004C4D6E60AD682E0026404A68E1
:1027B000D20202D5424615432E00474DAE60ED6869
:1027C0002C404A68920202D542462A431400424AEB
:1027D000D46001330A681400DC4077D001249C40A7
:1027E00022409046F5D04D68022D01D0122D0ED119
:1027F000DD080835AD002F5807261E40B6000F2211
:10280000B24097430A69B24016003E432E504D68CD
:102810006E1E012E03D9112D01D0122D12D1856803
:102820005F000326BE40B5432E00CD68BD40354352
:1028300085604568A5434A681609012434409C40D8
:102840002C43446007685E0003242500B540ED4337
:102850002F404A681440B4403C430460C46825409B
:102860008C68B4402C43C4604A68D200B1D51B4D7B
:102870006C6B012634436C639C08A51CAD00154E9F
:10288000AF5903261E40B5000F26AE40B743A02621
:10289000F605B04200D166E7114EB0420ED0114E9F
:1028A000B0420DD0104EB0420CD0104EB0420BD002
:1028B0000F4EB04200D154E7062655E7012653E7F4
:1028C000022651E703264FE704264DE704BC904655
:1028D000F0BDC0460000014000040140001002406D
:1028E0000004005000080050000C00500010005080
:1028F000001C0050002A01D1816270478161FCE711
:1029000030B51B4BDB68F022134022D1184A926B82
:10291000D2000ED5174A1268C02149010A40C021D1
:1029200049018A4216D1C0221202904212D10123DB
:1029300010E00F498C6B8022520522438A630D4AB6
:102940001268C024640122408C6B0B4D2C408C63B8
:10295000E5E700230948026801218A431A4302601F
:1029600002681140994201D0012030BD0020FCE7EF
:102970000010024000700040FFFFFFEF0020024007
:1029800070B582B004000368DB0740D5CC4BDA6831
:102990000C231340082B32D0C94BDA680C231340A8
:1029A0000C2B28D0636880225202934257D0A02279
:1029B000D20293425AD0C24B1A68C2490A401A60E6
:1029C0001A68802149020A400192019A1A68BE4998
:1029D0000A401A606368002B54D0FFF7C9F905005C
:1029E000B74B1B689B0312D4FFF7C2F9401B642846
:1029F000F6D903206BE2B24BDB68DB03D2D5B04BD8
:102A00001B689B0303D56368002B00D158E2236841
:102A10009B075AD5AA4BDA680C231340042B43D0EA
:102A2000A74BDA680C2313400C2B39D0E368002B3A
:102A300000D1ADE0A2490A680920824313430B602C
:102A4000FFF796F905009E4B1B685B0700D596E0E3
:102A5000FFF78EF9401B0228F5D9032037E2984A88
:102A6000116880235B020B431360B3E7944B196832
:102A70008022D2020A431A601968802252020A4355
:102A80001A60A7E7FFF774F905008D4B1B689B03DD
:102A9000BDD5FFF76DF9401B6428F6D9032016E277
:102AA000874BDB68DB03C1D4854B1B685B0704D510
:102AB000E368012B01D0012009E281494B68834A78
:102AC00013402269120213434B602368DB063BD597
:102AD0007B4BDB680C221A4200D080E0784B1B68ED
:102AE0009B0503D5E369002B00D1EBE1606A744BD1
:102AF0005B68E0221202134098425CD9FFF700FFA6
:102B0000002800D0E0E16E4A536871490B40616AC9
:102B10000B43536053681B021B0A216A09060B43CF
:102B20005360636A5A0B013280231B029340644A4C
:102B3000D16809090F220A4066498A5CD340664A77
:102B400013600020FFF7E8F823681B0700D492E029
:102B50006369002B7CD05A4A136D01210B43136526
:102B6000FFF706F90500564B1B6D9B0700D582E069
:102B7000FFF7FEF8401B0228F5D90320A7E15049D2
:102B80004B68524A13402269120213434B609CE780
:102B90004B4A136801218B431360FFF7E9F80500E6
:102BA000474B1B685B0790D5FFF7E2F8401B0228F4
:102BB000F6D903208BE1424A536845490B4018433C
:102BC000506053681B021B0A216A09060B435360BD
:102BD000606AFFF795FE0028A3D0012077E1E36942
:102BE000002B22D0364A116880235B000B43136010
:102BF000FFF7BEF80500324B1B689B0506D4FFF7B4
:102C0000B7F8401B0228F6D9032060E12C4A53682C
:102C10002F490B40616A0B43536053681B021B0A28
:102C2000216A09060B4353608EE7254A13682B4936
:102C30000B401360FFF79CF80500214B1B689B05B8
:102C400082D5FFF795F8401B0228F6D903203EE114
:102C50001B4A136D01218B431365FFF789F80500AB
:102C6000174B1B6D9B0706D5FFF782F8401B022808
:102C7000F6D903202BE123685B0700D48DE0104BCD
:102C80009B6BDB0030D40E4A916B80235B050B43BA
:102C900093630125124B1B68DB0527D5A3688022AF
:102CA0005200934236D0002B4CD1054B1A6D0B4984
:102CB0000A401A651A6D0B490A401A6530E0C04691
:102CC00000100240FFFFFEFFFFFFFBFFFFE0FFFFE2
:102CD000FF1FFFFFAC4500083C000020FFFEFFFF88
:102CE00000700040FFFBFFFF0025D3E77A4A116820
:102CF00080235B000B431360FFF73AF80600764B26
:102D00001B68DB05CAD4FFF733F8801B6428F6D9AB
:102D10000320DCE0714A116D80235B000B431365D7
:102D2000A368002B28D0FFF723F806006B4B1B6D20
:102D30009B0530D4FFF71CF8801B694B9842F5D9EE
:102D40000320C4E0A022D200934209D0634B1A6D45
:102D500064490A401A651A6D63490A401A65DFE73B
:102D60005E4B196D013AFF3A0A431A65196D8022CC
:102D700052000A431A65D3E7FEF7FAFF0600574BE5
:102D80001B6D9B0507D5FEF7F3FF801B544B984244
:102D9000F5D903209BE0012D21D023689B063CD56B
:102DA000A369002B21D04D4B996801200143996004
:102DB0005A6B02435A634D4A116A80239B010B43AD
:102DC0001362FEF7D5FF0500444B9B689B0724D494
:102DD000FEF7CEFF401B0228F6D9032077E03F4ADA
:102DE000936B43490B409363D7E73C4A93680121B7
:102DF0008B4393603D4A136A3E490B401362FEF7D2
:102E0000B7FF0500354B9B689B0706D5FEF7B0FF63
:102E1000401B0228F6D9032059E0A36A002B55D0A5
:102E20002E4AD1680C220A400C2A52D0022B12D012
:102E30002A4A136830490B401360FEF799FF0400DB
:102E4000264B1B689B0139D5FEF792FF001B022819
:102E5000F6D903203BE0214A136827490B40136051
:102E6000FEF786FF05001D4B1B689B0106D5FEF78C
:102E70007FFF401B0228F6D9032028E01749CB68C2
:102E80001E4A1340E26A206B0243606B0243134305
:102E9000CB600A6880235B0413430B60FEF768FF76
:102EA00004000E4B1B689B0106D4FEF761FF001B5C
:102EB0000228F6D903200AE0002008E0002006E0FE
:102EC000012004E0012002E0012000E0002002B027
:102ED00070BD0120FBE7C0460070004000100240BA
:102EE00088130000FFFEFFFFFFFBFFFF0000014013
:102EF000FFFFFFEFFFDFFFFFFFFFFFFEFFFF02FF10
:102F000010B5264BD9680C230B40082B42D00C2B54
:102F100011D0042B09D0214B5A68520B07231340C0
:102F2000013380200002984010BD1C4B1B68DB065B
:102F300032D51B48F8E78A0C0F231340194AD05C9E
:102F4000890D032211400131144BDB68DB030DD4E2
:102F5000124B1B68DB0613D54201121A93019B1A10
:102F6000DB001B181802FDF7CFF8DDE74201121A4B
:102F700093019B1ADB001B185802FDF7C5F8D3E735
:102F80004201121A93019B1ADB001B189802FDF7ED
:102F9000BBF8C9E70448C7E70448C5E7001002408A
:102FA00000093D00A045000800127A000024F4004A
:102FB00070B504000D005F4B1A68012313408B426B
:102FC0000BD25C490B68012293432B430B600B68C7
:102FD0001A40AA4201D0012070BD23689B0706D584
:102FE000554AD368F0218B43A1680B43D360236813
:102FF000DB0764D56368022B09D0032B29D0012B92
:103000002DD04D4A1268920506D40120E4E74A4AC1
:103010001268920300D48AE04749CA6803208243B9
:103020001343CB60FEF7A4FE06006368022B1CD09E
:10303000032B28D0012B34D03F4BDB680C221A42E3
:103040003DD0FEF795FE801B3C4B9842F4D90320FF
:10305000C2E7394A12689201DED40120BCE7364A41
:1030600012685207D8D40120B6E7334BDA680C2334
:103070001340082B23D0FEF77BFE801B2F4B98427A
:10308000F3D90320A8E72C4BDA680C2313400C2B50
:1030900015D0FEF76DFE801B284B9842F3D9032014
:1030A0009AE7254BDA680C231340042B07D0FEF770
:1030B0005FFE801B214B9842F3D903208CE71D4B08
:1030C0001A6801231340AB420BD91A490B6801223D
:1030D00093432B430B600B681A40AA4201D0012096
:1030E0007AE723685B0706D5134AD36814490B4077
:1030F000E1680B43D36023681B0707D50E49CB68F3
:10310000104A13402269D2001343CB60FFF7F8FE48
:10311000094BDA6812090F2313400B4AD35CD840DD
:103120000A4B18600020FEF7F7FD002054E701204D
:1031300052E7C04600200240001002408813000001
:10314000FFF8FFFFFFC7FFFFAC4500083C00002071
:10315000014B18687047C0463C00002010B5FFF7CF
:10316000F7FF044BDA68120A07231340024AD35CC4
:10317000D84010BD00100240BC45000810B5FFF754
:10318000E7FF044BDA68D20A07231340024AD35CF4
:10319000D84010BD00100240BC45000870B50400C6
:1031A00082231B0102681A425AD0754B9B6BDB00CD
:1031B00000D59DE0724A916B80235B050B439363BE
:1031C0000125704B1B68DB0500D493E06C4B1A683B
:1031D000C0239B031A4061680B40934200D19EE0DC
:1031E000C0239B020A001A409A4200D19FE0644B20
:1031F0001B6DC022920213401FD01140994202D091
:103200002268920608D4C0229202A1680A409A421B
:1032100013D023681B0510D5594B186D5A4A02402C
:103220001E6D8021090331431965196D574E3140D8
:1032300019651A65C30500D580E06368C022920253
:1032400019001140914200D188E04D490B6DC02218
:1032500092026068024013430B65012D00D187E0A4
:103260002368DB0706D5464AD36C03218B43E1680C
:103270000B43D36423689B0706D5414AD36C0C21CA
:103280008B4321690B43D36423685B0706D53C4A13
:10329000D36C3F490B4061690B43D36423681B0720
:1032A00006D5374AD36C3B490B40A1690B43D36425
:1032B0002368DB0506D5324AD36C33490B40E169FC
:1032C0000B43D36423685B0606D52D4AD36C324981
:1032D0000B40616A0B43D36423681B064ED5284A12
:1032E000D36C2E490B40216A0B43D364002070BD80
:1032F000002566E7234A116880235B000B431360B7
:10330000FEF736FD06001F4B1B68DB0500D55DE7A9
:10331000FEF72EFD801B6428F5D90320E7E7C023C4
:103320009B03A0680340934200D059E75FE7144B2A
:103330001B689B0300D45AE70120D8E7FEF718FD6D
:1033400006000F4B1B6D9B0500D576E7FEF710FDC1
:10335000801B134B9842F4D90320C8E708490A6838
:1033600010480240C0208003034013430B606CE709
:103370000A008B6B0C490B40936371E70020B6E7A2
:103380000010024000700040FFFFFCFFFFFFF7FF4E
:10339000FFF3FFFFFFCFFFFFFFFFFFFBFFFFF3FF89
:1033A00088130000FFFFCFFFFFFFFFEF10B51028CD
:1033B00000D120E12ED8022800D1CAE017D9042874
:1033C00000D1E5E0082859D19E4BDB6CC022920168
:1033D000134000D102E180229201934200D100E12A
:1033E00080225201934200D102E1002047E00128EF
:1033F00044D1944BDA6C0323134000D196E0022BA6
:1034000000D196E0012B00D19AE0032B00D19AE085
:10341000002034E0402859D016D980235B00984220
:1034200028D1884BDB6CC0229202134000D1EBE024
:1034300080229202934200D1E9E08022520293421C
:1034400000D1EBE000201AE0202817D17D4B196D48
:103450001B6DC022920213408022520293420FD071
:1034600080229202934210D0C0229202934210D046
:10347000002004E080231B019842E7D0002010BD0B
:103480008A05EDD580200002F9E78A07ECD56E4861
:10349000F5E76C4B1B689B0300D4C2E0694B1B68CB
:1034A000C0229203134080229203934200D1BAE0DB
:1034B000C0229203934205D080225203934203D04C
:1034C0006248DCE76248DAE76248D8E75D4BDB6CCC
:1034D0008022D20413401FD15A4A126892011BD590
:1034E000584BD868D968800C0F2202405A48805C3B
:1034F0008A0D032111400131DB68DB0307D4514BF6
:103500001B68DB0601D4554B02E0504B00E0544BE6
:103510005843FCF7F9FDB2E7002B00D185E0494B99
:103520009B689B0700D582E00020A8E7FFF726FEF6
:10353000A5E7444A1268520700D463E747489EE76C
:10354000FFF7DEFC9BE73F4B1B6D9B0571D4002012
:1035500095E73C4BDA6C0C23134007D0082B08D0BE
:10356000042B0CD00C2B0DD0002088E7FFF7F6FDC4
:1035700085E7344A12685207F2D538487FE7FFF7EB
:10358000BFFC7CE72F4B1B6D9B0555D4002076E7D5
:103590002C4BDB6CC022120113400DD08022120193
:1035A00093420CD08022D20093420ED0C02212014E
:1035B00093420DD0002062E7FFF7D0FD5FE7214A7C
:1035C00012685207EED5254859E7FFF799FC56E7F0
:1035D0001C4B1B6D9B0532D4002050E7FFF7BEFD4E
:1035E0004DE7184A1268520700D4F9E61B4846E72F
:1035F000FFF786FC43E7134B9B6B5B0201D4002073
:103600003DE7FFF7ABFD3AE7FFF7A8FD37E70D4AC7
:103610001268520700D410E7104830E7FFF770FC3B
:103620002DE700202BE70F4829E7002027E70E4869
:1036300025E78020000222E7802000021FE780208B
:1036400000021CE7001002408890000000093D00C5
:1036500020A1070080841E00A04500080024F4007B
:1036600000127A0040420F00006CDC02F8B5040042
:10367000016883680269134342691343C2691343B3
:103680000A68BE48024013430B6022685368BC4975
:103690000B40E1680B435360A1692268B94B9A4221
:1036A00001D0236A19439368B74803400B439360E2
:1036B0002368B64A934220D0B54A934231D0B54AE6
:1036C000934263D0B44A934262D0AE4A93423DD013
:1036D00010250220FFF76AFE2668AA4B9E425BD0A7
:1036E00080231B02E2699A4200D190E0082D00D9A4
:1036F00066E1AD00A94B5B599F46A94BDA6C0323E9
:103700001340012B09D0002B05D0022B3AD0032BFC
:1037100005D01025DDE70125DBE70425D9E70825DD
:10372000D7E79F4BDA6C0C231340042B0AD005D942
:10373000082B29D00C2B07D10825CAE7002B03D171
:103740000025C6E70425C4E71025C2E7944BDB6CCF
:10375000C022120113408022D20093420ED009D918
:1037600080221201934215D0C0221201934207D148
:103770000825AEE7002B03D10025AAE70425A8E71A
:103780001025A6E70225A4E70225A2E70025A0E769
:1037900000259EE702259CE7022D2DD007D9042D98
:1037A00030D0082D00D0DFE08020000207E0002D9F
:1037B00000D0D9E0FFF7D2FC002800D1D6E0626843
:1037C00053009B18834200D9D2E01303834200D2F6
:1037D000D0E0070E0602500800218019794100232D
:1037E000FCF796FD6F4BC2186F4B9A4200D9C3E0AD
:1037F0002368D860002022E0694B1B68DB0604D4F4
:103800006A48DCE7FFF77CFBD6E76948D7E7082D75
:1038100054D8AD00674B5B599F46400063685B0816
:10382000C0186168FCF770FC83B200200F221900F9
:1038300091435B10083A13400B432268D360F8BDF4
:10384000FFF79CFC400063685B08C0186168FCF7E8
:103850005BFC83B20020E9E7514B1B68DB060AD50D
:1038600063685808544B9C4660446168FCF74CFC04
:1038700083B20020DAE763685808504B9C466044E6
:103880006168FCF741FC83B20020CFE7FFF738FB0B
:10389000400063685B08C0186168FCF735FC83B2C0
:1038A0000020C3E76368580880235B029C4660449D
:1038B0006168FCF729FC83B20020B7E701200023F0
:1038C000B4E7FFF74BFC63685B08C0186168FCF75E
:1038D0001BFC23680004000CD8600020AFE7FFF752
:1038E0004DFC63685B08C0186168FCF70DFC236839
:1038F0000004000CD8600020A1E7294B1B68DB0600
:103900000BD5616848082A4B9C466044FCF7FCFBD9
:103910000004000CF060002091E761684808234B28
:103920009C466044FCF7F0FB0004000CF0600020B3
:1039300085E7FFF7E5FA63685B08C0186168FCF784
:10394000E3FB23680004000CD860002077E761687F
:10395000480880231B029C466044FCF7D5FB00040A
:10396000000CF06000206AE7012068E7002066E7AD
:10397000012064E7012062E7012060E7F369FFEFBF
:10398000FFCFFFFF00480040FFF4FFFF0038014079
:1039900000440040004C00400050004058450008E2
:1039A0000010024000FDFFFFFFFC0F000024F400A8
:1039B00000093D007C45000800127A000048E8013B
:1039C00001203CE7436ADB0706D5026853682C49AF
:1039D0000B40816A0B435360436A9B0706D502681C
:1039E000536828490B40C16A0B435360436A5B0725
:1039F00006D50268536824490B40016B0B435360A2
:103A0000436A1B0706D50268536820490B40416B87
:103A10000B435360436ADB0606D5026893681C4972
:103A20000B40816B0B439360436A9B0606D502688B
:103A3000936818490B40C16B0B439360436A5B0664
:103A40000BD50268536814490B40016C0B4353605B
:103A500080235B03026C9A420AD0436A1B0606D598
:103A6000026853680D490B40816C0B4353607047EB
:103A7000026853680A490B40416C0B435360ECE702
:103A8000FFFFFDFFFFFFFEFFFFFFFBFFFF7FFFFFCD
:103A9000FFEFFFFFFFDFFFFFFFFFEFFFFFFFF7FF7E
:103AA000FFFF9FFFF0B5C64600B506000C001700EB
:103AB0009846069D3368DB6923401B1B5A425341DD
:103AC000BB421ED16B1CF5D0002D05D0FEF750F97E
:103AD0004346C01AA842EDD9326813680B490B401F
:103AE000136032689368A331FF318B4393602023C6
:103AF0006922B3540132B35448330022F2540320F4
:103B000000E0002004BC9046F0BDC0465FFEFFFF11
:103B1000F0B585B004000E0017001D006923C35CDA
:103B2000202B59D100295AD0002A5AD080235B017A
:103B300082689A4213D06823E35C012B53D0682338
:103B40000122E2540023E36669332032E254FEF797
:103B50000FF903905023E7520233E7520AE003695A
:103B6000002BE8D1CB07E6D5012036E03278236878
:103B70009A6201365223E35A9BB2002B1CD0522288
:103B8000A35A013B9BB2A3520095039B00228021C4
:103B90002000FFF787FF002827D180235B01A26860
:103BA0009A42E3D12369002BE0D133882268DB05F8
:103BB000DB0D93620236DDE70095039B0022402176
:103BC0002000FFF76FFF002811D169232022E25463
:103BD000013B0022E25400E0022005B0F0BD0120CC
:103BE000FBE70120F9E70220F7E70320F5E70320D0
:103BF000F3E7000030B583B004000023C366FEF78E
:103C0000B7F8050023681B681B070ED423681B68E0
:103C10005B0717D420236922A3540132A3544833ED
:103C20000022E254002003B030BD80210C4B0093F1
:103C30000300002289032000FFF734FF0028E5D0AD
:103C40000320F0E78021064B00932B000022C903DC
:103C50002000FFF727FF0028DCD00320E3E7C04661
:103C6000FFFFFF0110B5041E30D06923C35C002B99
:103C700022D069232422E2542268136801218B4355
:103C80001360636A002B1DD12000FFF7EFFC0128B1
:103C900011D0226853680E490B4053602268936824
:103CA0002A218B4393602268136829390B431360E0
:103CB0002000FFF79FFF10BD68330022C25400F0C0
:103CC00073FBD6E72000FFF77DFEDDE70120F2E77A
:103CD000FFB7FFFF70B588B01A4BD96A04221143B1
:103CE000D962D96A0A400092009AD96A80221143A7
:103CF000D962D96A0A400192019ADA6A01252A43F7
:103D0000DA62DB6A2B400293029BA026F6050022B2
:103D100020213000FEF7EEFD80239B0103930A4B28
:103D200004930024059403A90848FEF715FD2023F9
:103D3000039304950594069403A93000FEF70CFD47
:103D400008B070BD001002400000211000080050B3
:103D500000B583B0094A116B012319431163126B3B
:103D600013400193019B002200210920FEF768FA0D
:103D70000920FEF795FA03B000BDC04600100240CE
:103D8000002305E0044A99008858521890600133D6
:103D9000012BF7DD7047C0465C00002070B50400C1
:103DA000002303E00D4A3021D1540133062BF9DD05
:103DB000002510E00A212000FCF72CFAC9B20623E6
:103DC0005B1B3031054AD1540A212000FCF79CF9D5
:103DD00004000135EDB2002CECD170BD00000020D4
:103DE000F8B5002574E00021201CFCF763FA0028D8
:103DF0000AD1201CFDF790FE06000F00504A514BDF
:103E0000FCF724FA002810D0AA004F4B9B184F4A09
:103E10009A614F49201CFCF73BFCFCF799FAFFF72D
:103E2000BDFF002D26D000232CE0454A494B300031
:103E30003900FCF71FFA00280DD0474A474B3000E5
:103E40003900FCF703FA002805D0AA003E4B9B1866
:103E5000434A9A61DDE7AA003B4B9B1800229A6116
:103E6000D7E7404AD15CD21811730133DBB2062B7D
:103E7000F7D909E00023FAE73A4AD15CD218117564
:103E80000133DBB2062BF7D9AA002F4B9B18986998
:103E90002F49FCF7FDFBFCF75BFAFFF77FFF002DD6
:103EA0000AD0002311E02F4AD15CD21811770133D8
:103EB000DBB2062BF7D90AE00023FAE7294AD05CE7
:103EC000D218242150540133DBB2062BF6D9013528
:103ED000012D34DCAB001C4EF618B068FDF7EAFD8E
:103EE0000022214BFCF7F2FFFDF768FE041C306155
:103EF0000021FCF7DFF9002800D074E7FE218905D6
:103F0000201CFCF7F1F9002800D16CE7201CFDF71C
:103F100003FE0022154BFDF74BFA06000F00114B74
:103F20005B19187AFDF78CFD32003B00FCF7CEFFE1
:103F3000FDF744FEAA00044B9B18986169E7F8BDA1
:103F40009A9999999999C93F5C00002000C07944D9
:103F500000007A449999D93F333333333333E33F05
:103F600000005E440000002000004C3F0000F03FD5
:103F7000FEE7000010B50D480D4B0360E1235B0226
:103F8000436000238360C36003610C22426183614C
:103F9000C36103624362FFF765FE002800D110BDD4
:103FA0009621FF310348FFF7E3FFC04620010020C0
:103FB000004400404446000800B583B02148224B2D
:103FC000036000230364C02212064260836007225C
:103FD000C263063A0261C36002624362C362C221E5
:103FE000FF3181620263073242614363836183630D
:103FF000C361FDF725FF002814D10123009301932D
:1040000069461048FEF7ACF8002810D10F4B00931A
:104010000223019369460B48FEF7A2F800280BD152
:1040200003B000BD5A21FF310948FFF7A1FFB121BC
:1040300049000748FFF79CFF6C21FF310448FFF758
:1040400097FFC046D0010020002401400200000478
:104050004446000810B50D480D4B0360E1235B0298
:10406000436000238360C36003610C22426183616B
:10407000C36103624362FFF7F5FD002800D110BD64
:10408000C02149000348FFF773FFC04680000020AD
:10409000003801404446000800B59FB027490B682E
:1040A000274A1A4080231B0113430B6010231093EF
:1040B0000F3B179300231893A022120219921A9310
:1040C00010A8FEF75DFC002829D10F230B930023D5
:1040D0000C930D930E930F9300210BA8FEF768FF2E
:1040E000002821D10323019300230493059301A801
:1040F000FFF754F800281CD1FFF72AF8FA218900AD
:10410000FCF702F8FEF7D6F80420FEF7EFF80120DE
:10411000002200214042FEF793F81FB000BD1A2193
:10412000FF310848FFF724FF2821FF310548FFF73A
:104130001FFF3021FF310348FFF71AFF00700040D6
:10414000FFE7FFFF4446000810B5FDF7F9FDFFF754
:10415000A3FFFFF7BFFDFFF7FBFDFFF70BFFFFF727
:104160002BFFFFF777FF02225A495B48FDF758FF04
:10417000A02001222021C005FEF7BCFBA4E0574A85
:10418000D05CD2182C2150540133DBB2062BF6D967
:10419000504BD868FFF702FE002306E04F4AD05C80
:1041A000D218342150540133DBB2062BF6D9FA244D
:1041B000A4002000FDF7E2FDFFF712FE2000FDF74E
:1041C000DDFD002306E09900424A5218002191606B
:1041D0000133DBB2012BF6D9A02001222021C0053A
:1041E000FEF788FB002307E03C4AD2182C21515CE3
:1041F0003B4AD1540133DBB2062BF5D9384A3B2177
:10420000D1540133DBB2002208E034498918087B1D
:104210003349C8540133DBB20132D2B2062AF4D991
:104220002F4A3B21D1540133DBB2002208E02B4955
:104230008918087F2A49C8540133DBB20132D2B24F
:10424000062AF4D9264A3B21D1540133DBB200229D
:1042500009E0224989183420085C2149C8540133F7
:10426000DBB20132D2B2062AF3D91D4A3B21D15426
:104270000133DBB2002208E018498918087D18498B
:10428000C8540133DBB20132D2B2062AF4D9144A3F
:104290003B21D1540133DBB2002209E00F498918D8
:1042A0002420085C0E49C8540133DBB20132D2B27B
:1042B000062AF3D964232F2209490A48FFF728FC6C
:1042C000FA208000FDF75AFD024B9868FFF766FD63
:1042D00000235BE75C000020D001002000000020EC
:1042E000F00000208000002010B50E4B5A6B012119
:1042F0000A435A63996B802252050A439A63052048
:10430000002200214042FDF79BFF022000220021F5
:104310004042FDF795FF0120002200214042FDF7B9
:104320008FFF10BD0010024070B586B00400194B1D
:1043300002689A4201D006B070BD174A536B8026BE
:10434000B60033435363032301930293002503957F
:10435000A02001A9C005FEF7FFF91048104B03602B
:1043600045608560C56080230361466180231B0131
:1043700083612023C3610562FDF7DEFF002803D1BE
:10438000064B23659C62D6E76A210648FFF7F0FDDD
:10439000F6E7C046002401400010024090010020D2
:1043A000080002405446000800B587B003681A4A66
:1043B000934204D0194A934218D007B000BD184A5E
:1043C000516B8023DB010B435363C023DB0001935C
:1043D00002230293002303930333049301330593D1
:1043E000A02001A9C005FEF7B7F9E6E70C4A916BDA
:1043F00080239B020B4393630C2301930A3B02939C
:10440000002303930333049301330593A02001A9F0
:10441000C005FEF7A1F9D0E7003801400044004094
:10442000001002407047FEE77047704710B5FDF777
:1044300097FCFDF76CFF10BD10B50248FEF74CF875
:1044400010BDC04690010020104B19688022520018
:104450000A431A60DA680E490A40DA601A680D49A0
:104460000A401A609A6801218A439A601A680A49C8
:104470000A401A60DA6809490A40DA6000221A61C3
:10448000074B802212059A607047C0460010024018
:104490000C40FF88F6FFF6FEFFFFFBFFFFFF02FF69
:1044A00000ED00E00D488546002103E00C4B5B5811
:1044B000435004310B480C4B42189A42F6D30B4A36
:1044C00002E0002313600432094B9A42F9D3FFF74C
:1044D000BBFF00F011F8FFF737FEFEE700500020A9
:1044E000804600080000002040000020400000201E
:1044F00030020020FEE7000070B500260C4D0D4C88
:10450000641BA410A64209D1002600F019F80A4D38
:104510000A4C641BA410A64205D170BDB300EB5831
:1045200098470136EEE7B300EB5898470136F2E7BB
:104530007846000878460008784600087C4600085F
:10454000F8B5C046F8BC08BC9E467047F8B5C046F2
:08455000F8BC08BC9E46704750
:10455800C2380008DE380008FA380008C0390008F8
:1045680032390008C0390008C0390008C0390008CD
:104578004E3900081A380008403800085838000832
:10458800BC3800088C380008BC380008BC38000863
:10459800BC380008A4380008030406080C101820CA
:1045A80030000000000000000000000001020304C9
:1045B8000607080900000000010203048807000834
:1045C8003207000832070008600800082E070008B4
:1045D8002E07000856080008600800082E07000883
:1045E800560800082E07000860080008640800083C
:1045F80064080008640800086C08000884100008B3
:10460800860F0008860F0008A4120008800F000813
:10461800800F00088C120008A4120008800F000800
:104628008C120008800F0008A41200089A120008D3
:104638009A1200089A120008A81200082E2E2F536A
:1046480072632F6D61696E2E630000002E2E2F534A
:1046580072632F73746D33326C3078785F68616C75
:084668005F6D73702E6300000A
:0846700010BDFF7F01000000F6
:04467800E90000084D
:04467C00C100000871
:1046800030303030303030006405000030303030B1
:10469000303030003030303030303000303030307A
:1046A000303030003030303030303000303030306A
:1046B00030303000303030303030300080841E00F8
:04000005080044A506
:00000001FF
